:08000000803102288731FD2F39
:10033C002000340833043204031908008030B4065A
:10034C00080023001E129F111E110C309B009D17DC
:10035C002100911223001D12080023008F01103080
:10036C0021008F0023008D0121008D018E012200C0
:10037C008E010800FB007B082000A000A101A20157
:10038C002008F0002108F1002208F2008E30A300B2
:10039C002308F300F401823186227008F8007108FA
:1003AC00F9007208FA000800FD01F91FE429F809A8
:1003BC00F909F80A0319F90AFD01FD0A7808F00099
:1003CC007908F100F2018E30FB007B08F3007D0808
:1003DC00FC007C08F400823186227008F800710859
:1003EC00F9007208FA000800F21F102A7009F600D2
:1003FC007109F7007209F800F60A0319F70A0319D4
:10040C00F80A00307607F0000030773DF1008030BC
:10041C00783DF200F51F262A7309F6007409F700DF
:10042C007509F800F60A0319F70A0319F80A0030DF
:10043C007607F3000030773DF4008030783DF5000E
:10044C008030F2068030F50675087202031D080034
:10045C0074087102031D0800730870020800200064
:10046C001814970196010F1E392A1810970196013E
:10047C0018140F1A3F2A0F30A0001330A10044307B
:10048C00A2001708B300B4013308B400B301330859
:10049C001604F8003408F9008131DA218231780829
:1004AC002000A3007908A4007A08A50083317123E9
:1004BC00823120002008B6002108B7002208B800BD
:1004CC000030F0004830F1004230F2003608F30002
:1004DC003708F4003808F5008131FA21823103180D
:1004EC007E2A00302000B6004830B7004230B800F9
:1004FC0020003608B0003708B1003808B2000800F8
:10050C00730803198E2A720871047004031D9F2A44
:10051C000030F0000030F1000030F2000800013033
:10052C00F5007508F3070130F236F10CF00C890B6D
:10053C009A2AFE3072050319B82A952A0130F50063
:10054C007508F3070130F007003003180130F1078C
:10055C00003003180130F2070130F236F10CF00CC8
:10056C00890BB32AFF3072050319C52AA42A01305E
:10057C00F3020130F035F10DF20D890BC02AF11B9D
:10058C00CB2A023073020318BD2A7318D32AFF300A
:10059C00F0057F30F105FF30F2050310F30C730802
:1005AC00F500F601F7011030F535F60DF70D890B56
:1005BC00DA2A7508F0047608F1047708F204740856
:1005CC0003190800F217080020002408A8002508C9
:1005DC00A9002608AA000310290D2A0DAB002B0830
:1005EC00B1003108031D032B0030A7000030A6001A
:1005FC000030A5000030A40008002408A80025083D
:10060C00A9002608AA001730AA36A90CA80C890B39
:10061C000A2B2808AB002B08AC00A517FF30A4054B
:10062C00FF30A5050030A6052408AD002508AE0056
:10063C002608AF00B0018E30B102B11F412B31083A
:10064C00803A8F3E0318332B0030A7000030A600F1
:10065C000030A5000030A40008000130B036AF0C0B
:10066C00AE0CAD0C890B342B0130A8002808B10757
:10067C0003195A2B332B18303102031C572B003023
:10068C00A7000030A6000030A5000030A400080030
:10069C000130AD35AE0DAF0DB00D890B4F2B0130C8
:1006AC00B1023108031D4E2B2C080319682BAD0920
:1006BC00AE09AF09B009AD0A0319AE0A0319AF0AA6
:1006CC000319B00A3008A7002F08A6002E08A500B1
:1006DC002D08A400080020002308A6002408A70069
:1006EC002508A8000310270D280DA9002908AE0025
:1006FC002E08031D882B0030A0000030A100003014
:10070C00A20008002008A6002108A7002208A800C3
:10071C000310270D280DA9002908AF002F08031D71
:10072C009E2B0030A0000030A1000030A200080079
:10073C000030AB000030AC000030AD0089302F072A
:10074C00A6002608AE022308A6002408A700250848
:10075C00A8001030A836A70CA60C890BB02B2608C5
:10076C00A9002908AF002008A6002108A70022082C
:10077C00A8001030A836A70CA60C890BC02B260895
:10078C00A9002908AF068030A6002608AF05A417DB
:10079C00FF30A305FF30A4050030A505A117FF30DD
:1007AC00A005FF30A1050030A2051830A6002608D0
:1007BC00AA000130AB35AC0DAD0D890BE02B220836
:1007CC002502031DEF2B21082402031DEF2B20080B
:1007DC002302031CF82B2008A3022108A43B2208A7
:1007EC00A53B2B140130A335A40DA50D890BF92BBA
:1007FC000130AA02031DDF2B2B08F0002C08F1009E
:10080C002D08F2002E08A6002608F3002F08A700DA
:10081C002708F4008231862270082000A00071089D
:10082C00A1007208A200080020004208C80043087A
:10083C00C9004408CA000310490D4A0DCB004B08EF
:10084C00CC004C08031D312C0030C2000030C3001A
:10085C000030C40008004508C8004608C900470815
:10086C00CA000310490D4A0DCB004B08D1005108AA
:10087C00031D472C0030C2000030C3000030C40000
:10088C00080051087B3EC8004808CC074208C80045
:10089C004308C9004408CA001030CA36C90CC80C39
:1008AC00890B532C4808CB004B08D1004508C800D5
:1008BC004608C9004708CA001030CA36C90CC80C13
:1008CC00890B632C4808CB004B08D1068030C8003C
:1008DC004808D105C317C617FF30C505FF30C6053C
:1008EC000030C7050030CD000030CE000030CF0006
:1008FC000730C8004808D000421C8A2C4508CD0798
:10090C004608CE3D4708CF3D0130C436C30CC20C5F
:10091C00890B8B2C0130C535C60DC70D890B912C5D
:10092C000130D002031D822C0930C8004808D000C9
:10093C00421CA62C4508CD074608CE3D4708CF3DA6
:10094C000130C436C30CC20C890BA72C0130CF3636
:10095C00CE0CCD0C890BAD2C0130D002031D9E2C7E
:10096C004D08F0004E08F1004F08F2004C08C8008A
:10097C004808F3005108C9004908F4008231862266
:10098C0070082000C2007108C3007208C40008007F
:10099C0020003508BB003608BC003708BD0003102A
:1009AC003C0D3D0DBE003E08C1003808BB003908A7
:1009BC00BC003A08BD0003103C0D3D0DBE003E08C6
:1009CC00C00041080319F62C400841020318FD2C05
:1009DC004103FF3A4007BB0019303B02031CFD2CBE
:1009EC003808B5003908B6003A08B70008004008C6
:1009FC00031908004108400203180C2D4003FF3A6C
:100A0C004107BB0019303B02031808000630BB003D
:100A1C003B08BF00B71BBF17BA1B3F17B617FF30F9
:100A2C00B505FF30B6050030B705B917FF30B8056E
:100A3C00FF30B9050030BA05400841020318482DB3
:100A4C000130B835B90DBA0D890B272D0130C00214
:100A5C00400841060319432D0130BF023F080739F6
:100A6C000319432D262D0130B736B60CB50C890B66
:100A7C003A2D0130BB003B08C10741084006031961
:100A8C006D2D392D4108400203186D2D0130B535FF
:100A9C00B60DB70D890B4D2D0130C1024008410632
:100AAC000319692D0130BF023F0807390319692D5D
:100ABC004C2D0130BA36B90CB80C890B602D0130B5
:100ACC00BB003B08C00741084006031D5F2DBF1F3C
:100ADC007F2DFF30B506FF30B606FF30B70601306C
:100AEC00B507003003180130B60700300318013089
:100AFC00B7073F1F912DFF30B806FF30B906FF3006
:100B0C00BA060130B807003003180130B9070030BD
:100B1C0003180130BA07BF013508B8073608B93DCC
:100B2C003708BA3DBA1FAC2DFF30B806FF30B906F6
:100B3C00FF30BA060130B807003003180130B9078E
:100B4C00003003180130BA07BF01BF0A3808F000A3
:100B5C003908F1003A08F2004108BB003B08F300E9
:100B6C003F08BC003C08F40082318622700820004B
:100B7C00B5007108B6007208B70008008131B321C6
:100B8C0085318131A7218531103020009800230058
:100B9C009E1620008F150630890BD22D00322000B6
:100BAC008F1182313522853120003008D400310874
:100BBC00D5003208D6005408A4005508A5005608E4
:100BCC00A6008231EA2285312000240822008D0003
:100BDC002000E001E1014030600661040319F12EB0
:100BEC008F150630890BF82D003220008F118231C1
:100BFC003522853120003008DA003108DB0032085C
:100C0C00DC005A08A4005B08A5005C08A600823131
:100C1C00EA2285312000240822008D0020008F1448
:100C2C0002302000D3008630D2009930890B1C2E64
:100C3C00D20B1C2ED30B1C2E20008F100230200048
:100C4C00D3008630D2009930890B2A2ED20B2A2E53
:100C5C00D30B2A2E20008F1602302000D3008630B2
:100C6C00D2009930890B382ED20B382ED30B382E5C
:100C7C0020008F1202302000D3008630D200993031
:100C8C00890B462ED20B462ED30B462E20000F1569
:100C9C0002302000D3008630D2009930890B542EBC
:100CAC00D20B542ED30B542E20000F1102302000E7
:100CBC00D3008630D2009930890B622ED20B622E73
:100CCC00D30B622E20000F1703302000D300083006
:100CDC00D2007730890B702ED20B702ED30B702E66
:100CEC0020000F1302302000D3008630D200993040
:100CFC00890B7E2ED20B7E2ED30B7E2E200060080D
:100D0C00043EE0000030613DE1005A08A4005B089D
:100D1C00A5005C08A6008231EA2285312000240857
:100D2C0023009A002000111E982E5A08A4005B087C
:100D3C00A5005C08A6008231EA2285312000240837
:100D4C008131C021853178082000B2007908B300C8
:100D5C007A08B40081319E21853120003208B80018
:100D6C003308B9003408BA005A08B5005B08B6005D
:100D7C005C08B7008431CE24853120003508C500CD
:100D8C003608C6003708C7000030C2002030C30048
:100D9C004130C40084311A24853120004208D70028
:100DAC004308D8004408D9005708A4005808A500E7
:100DBC005908A6008231EA2285312000240823003C
:100DCC009A002000111EE72E413023009A002000CB
:100DDC00111AF12DED2E423023009A002000111A29
:100DEC00F22FF42E8F150630890BFA2E00322000CC
:100DFC008F1182313522853120003008DD00310819
:100E0C00DE003208DF005D08A4005E08A5005F0864
:100E1C00A6008231EA2285312000240822008D00B0
:100E2C0020000F1702302000D3008630D2009930FA
:100E3C00890B1E2FD20B1E2FD30B1E2F20000F132E
:100E4C0002302000D3008630D2009930890B2C2F31
:100E5C00D20B2C2FD30B2C2F20000F15023020007F
:100E6C00D3008630D2009930890B3A2FD20B3A2F0F
:100E7C00D30B3A2F20000F1102302000D300863004
:100E8C00D2009930890B482FD20B482FD30B482F07
:100E9C0020008F1602302000D3008630D20099300B
:100EAC00890B562FD20B562FD30B562F20008F1297
:100EBC0002302000D3008630D2009930890B642F89
:100ECC00D20B642FD30B642F20008F140230200020
:100EDC00D3008630D2009930890B722FD20B722F2F
:100EEC00D30B722F20008F1002302000D3008630DD
:100EFC00D2009930890B802FD20B802FD30B802FEF
:100F0C0020006008FC3EE000FF30613DE1005D0820
:100F1C00A4005E08A5005F08A6008231EA22853194
:100F2C002000240823009A002000111E9A2F5D082F
:100F3C00A4005E08A5005F08A6008231EA22853174
:100F4C00200024088131C021853178082000B200AE
:100F5C007908B3007A08B40081319E2185312000D4
:100F6C003208B8003308B9003408BA005D08B5007F
:100F7C005E08B6005F08B7008431CE2485312000AE
:100F8C003508C5003608C6003708C7000030C20057
:100F9C002030C3004130C40084311A248531200034
:100FAC004208D7004308D8004408D9005708A400C9
:100FBC005808A5005908A6008231EA228531200084
:100FCC00240823009A002000111EE92F4130230031
:100FDC009A002000111EEF2F60086104031DF82EEB
:100FEC00423023009A002000111ACF2DF92F200037
:040FFC008531C42D4A
:020000040001F9
:04000E00E2C9FFDC68
:00000001FF
